{
  "contractName": "Shop",
  "abi": [
    {
      "inputs": [
        {
          "internalType": "address",
          "name": "_tokenAddress",
          "type": "address"
        }
      ],
      "payable": false,
      "stateMutability": "nonpayable",
      "type": "constructor"
    },
    {
      "anonymous": false,
      "inputs": [
        {
          "indexed": false,
          "internalType": "uint256",
          "name": "pid",
          "type": "uint256"
        },
        {
          "indexed": false,
          "internalType": "address",
          "name": "seller",
          "type": "address"
        },
        {
          "indexed": false,
          "internalType": "uint256",
          "name": "timestamp",
          "type": "uint256"
        }
      ],
      "name": "AddedProduct",
      "type": "event"
    },
    {
      "anonymous": false,
      "inputs": [
        {
          "indexed": false,
          "internalType": "uint256",
          "name": "pid",
          "type": "uint256"
        },
        {
          "indexed": false,
          "internalType": "address",
          "name": "buyer",
          "type": "address"
        },
        {
          "indexed": false,
          "internalType": "uint256",
          "name": "timestamp",
          "type": "uint256"
        }
      ],
      "name": "BuyProduct",
      "type": "event"
    },
    {
      "constant": false,
      "inputs": [
        {
          "internalType": "uint256",
          "name": "_pid",
          "type": "uint256"
        },
        {
          "internalType": "string",
          "name": "_name",
          "type": "string"
        },
        {
          "internalType": "uint256",
          "name": "_price",
          "type": "uint256"
        },
        {
          "internalType": "uint256",
          "name": "_quantity",
          "type": "uint256"
        },
        {
          "internalType": "string",
          "name": "_imgPath",
          "type": "string"
        },
        {
          "internalType": "uint256",
          "name": "timestamp",
          "type": "uint256"
        }
      ],
      "name": "addProduct",
      "outputs": [],
      "payable": false,
      "stateMutability": "nonpayable",
      "type": "function"
    },
    {
      "constant": true,
      "inputs": [
        {
          "internalType": "uint256",
          "name": "_pid",
          "type": "uint256"
        }
      ],
      "name": "getProduct",
      "outputs": [
        {
          "internalType": "string",
          "name": "name",
          "type": "string"
        },
        {
          "internalType": "uint256",
          "name": "price",
          "type": "uint256"
        },
        {
          "internalType": "uint256",
          "name": "quantity",
          "type": "uint256"
        },
        {
          "internalType": "string",
          "name": "imgPath",
          "type": "string"
        },
        {
          "internalType": "address",
          "name": "seller",
          "type": "address"
        }
      ],
      "payable": false,
      "stateMutability": "view",
      "type": "function"
    },
    {
      "constant": false,
      "inputs": [
        {
          "internalType": "uint256",
          "name": "_pid",
          "type": "uint256"
        },
        {
          "internalType": "uint256",
          "name": "_timestamp",
          "type": "uint256"
        }
      ],
      "name": "buyProduct",
      "outputs": [],
      "payable": false,
      "stateMutability": "nonpayable",
      "type": "function"
    }
  ],
  "bytecode": "0x608060405234801561001057600080fd5b50604051610b96380380610b968339818101604052602081101561003357600080fd5b810190808051906020019092919050505080600260006101000a81548173ffffffffffffffffffffffffffffffffffffffff021916908373ffffffffffffffffffffffffffffffffffffffff16021790555050610b01806100956000396000f3fe608060405234801561001057600080fd5b506004361061005e576000357c01000000000000000000000000000000000000000000000000000000009004806353b6286614610063578063b9db15b41461009b578063dd31ee57146101ef575b600080fd5b6100996004803603604081101561007957600080fd5b810190808035906020019092919080359060200190929190505050610369565b005b6100c7600480360360208110156100b157600080fd5b810190808035906020019092919050505061066f565b6040518080602001868152602001858152602001806020018473ffffffffffffffffffffffffffffffffffffffff1673ffffffffffffffffffffffffffffffffffffffff168152602001838103835288818151815260200191508051906020019080838360005b8381101561014957808201518184015260208101905061012e565b50505050905090810190601f1680156101765780820380516001836020036101000a031916815260200191505b50838103825285818151815260200191508051906020019080838360005b838110156101af578082015181840152602081019050610194565b50505050905090810190601f1680156101dc5780820380516001836020036101000a031916815260200191505b5097505050505050505060405180910390f35b610367600480360360c081101561020557600080fd5b81019080803590602001909291908035906020019064010000000081111561022c57600080fd5b82018360208201111561023e57600080fd5b8035906020019184600183028401116401000000008311171561026057600080fd5b91908080601f016020809104026020016040519081016040528093929190818152602001838380828437600081840152601f19601f8201169050808301925050505050505091929192908035906020019092919080359060200190929190803590602001906401000000008111156102d757600080fd5b8201836020820111156102e957600080fd5b8035906020019184600183028401116401000000008311171561030b57600080fd5b91908080601f016020809104026020016040519081016040528093929190818152602001838380828437600081840152601f19601f82011690508083019250505050505050919291929080359060200190929190505050610880565b005b600080600084815260200190815260200160002060030154116103f4576040517f08c379a00000000000000000000000000000000000000000000000000000000081526004018080602001828103825260138152602001807f50726f6475637420697320736f6c64206f75740000000000000000000000000081525060200191505060405180910390fd5b600080600084815260200190815260200160002090506000339050600260009054906101000a900473ffffffffffffffffffffffffffffffffffffffff1673ffffffffffffffffffffffffffffffffffffffff1663beabacc8828460040160009054906101000a900473ffffffffffffffffffffffffffffffffffffffff1685600201546040518463ffffffff167c0100000000000000000000000000000000000000000000000000000000028152600401808473ffffffffffffffffffffffffffffffffffffffff1673ffffffffffffffffffffffffffffffffffffffff1681526020018373ffffffffffffffffffffffffffffffffffffffff1673ffffffffffffffffffffffffffffffffffffffff1681526020018281526020019350505050602060405180830381600087803b15801561053057600080fd5b505af1158015610544573d6000803e3d6000fd5b505050506040513d602081101561055a57600080fd5b81019080805190602001909291905050505060018260030160008282540392505081905550600160008581526020019081526020016000208190806001815401808255809150509060018203906000526020600020016000909192909190916101000a81548173ffffffffffffffffffffffffffffffffffffffff021916908373ffffffffffffffffffffffffffffffffffffffff160217905550507f6e963996302b87595be0bd0f2d400e2f43c1cfce4378ba7e9b34305fe2f2746b848285604051808481526020018373ffffffffffffffffffffffffffffffffffffffff1673ffffffffffffffffffffffffffffffffffffffff168152602001828152602001935050505060405180910390a150505050565b6060600080606060006106806109e2565b6000808881526020019081526020016000206040518060a0016040529081600082018054600181600116156101000203166002900480601f0160208091040260200160405190810160405280929190818152602001828054600181600116156101000203166002900480156107365780601f1061070b57610100808354040283529160200191610736565b820191906000526020600020905b81548152906001019060200180831161071957829003601f168201915b50505050508152602001600182018054600181600116156101000203166002900480601f0160208091040260200160405190810160405280929190818152602001828054600181600116156101000203166002900480156107d85780601f106107ad576101008083540402835291602001916107d8565b820191906000526020600020905b8154815290600101906020018083116107bb57829003601f168201915b5050505050815260200160028201548152602001600382015481526020016004820160009054906101000a900473ffffffffffffffffffffffffffffffffffffffff1673ffffffffffffffffffffffffffffffffffffffff1673ffffffffffffffffffffffffffffffffffffffff1681525050905080600001518160400151826060015183602001518460800151849450819150955095509550955095505091939590929450565b6040518060a001604052808681526020018381526020018581526020018481526020013373ffffffffffffffffffffffffffffffffffffffff1681525060008088815260200190815260200160002060008201518160000190805190602001906108eb929190610a27565b506020820151816001019080519060200190610908929190610a27565b50604082015181600201556060820151816003015560808201518160040160006101000a81548173ffffffffffffffffffffffffffffffffffffffff021916908373ffffffffffffffffffffffffffffffffffffffff1602179055509050507f283a98e56d9d477bc9675301834a627bc96a173f644ce87ab9bbeee35e192965863383604051808481526020018373ffffffffffffffffffffffffffffffffffffffff1673ffffffffffffffffffffffffffffffffffffffff168152602001828152602001935050505060405180910390a1505050505050565b6040518060a0016040528060608152602001606081526020016000815260200160008152602001600073ffffffffffffffffffffffffffffffffffffffff1681525090565b828054600181600116156101000203166002900490600052602060002090601f016020900481019282601f10610a6857805160ff1916838001178555610a96565b82800160010185558215610a96579182015b82811115610a95578251825591602001919060010190610a7a565b5b509050610aa39190610aa7565b5090565b610ac991905b80821115610ac5576000816000905550600101610aad565b5090565b9056fea265627a7a7231582012738fdbcb7532d6752e5fbd1627216b648e6c0827867a0afde5dfb80073ba8564736f6c63430005100032",
  "source": "pragma solidity >=0.4.25 <0.6.0;\n\nimport \"./Token.sol\";\n\ncontract Shop {\n    struct Product {\n        string name;\n        string imgPath;\n        uint256 price;\n        uint256 quantity;\n        address seller;\n    }\n    event AddedProduct(uint256 pid, address seller, uint256 timestamp);\n    event BuyProduct(uint256 pid, address buyer, uint256 timestamp);\n    mapping (uint256 => Product) products;\n    mapping (uint256 => address[]) buying;\n    Token token;\n\n    constructor (address _tokenAddress) public {\n        token = Token(_tokenAddress);\n    }\n\n    function addProduct(\n        uint256 _pid,\n        string memory _name,\n        uint256 _price,\n        uint256 _quantity,\n        string memory _imgPath,\n        uint256 timestamp\n    ) public {\n        products[_pid] = Product({\n            name: _name,\n            imgPath: _imgPath,\n            price: _price,\n            quantity: _quantity,\n            seller: msg.sender\n        });\n        emit AddedProduct(_pid, msg.sender, timestamp);\n    }\n\n    function getProduct(uint256 _pid) public view returns (string memory name, uint256 price, uint256 quantity, string memory imgPath, address seller) {\n        Product memory product = products[_pid];\n        return (product.name, product.price, product.quantity, product.imgPath, product.seller);\n    }\n\n    function buyProduct(uint256 _pid, uint256 _timestamp) public {\n        require(products[_pid].quantity > 0, \"Product is sold out\");\n\n        Product storage product = products[_pid];\n        address _buyer = msg.sender;\n        token.transfer(_buyer, product.seller, product.price);\n\n        product.quantity -= 1;\n\n        buying[_pid].push(_buyer);\n        emit BuyProduct(_pid, _buyer, _timestamp);\n    }\n}\n",
  "sourcePath": "/home/olive/work/test/simple-ecommerce-dapp/contracts/Shop.sol",
  "compiler": {
    "name": "solc",
    "version": "0.5.16+commit.9c3226ce.Emscripten.clang"
  },
  "schemaVersion": "3.3.3",
  "updatedAt": "2021-01-13T10:50:20.744Z",
  "networkType": "ethereum",
  "devdoc": {
    "methods": {}
  },
  "userdoc": {
    "methods": {}
  }
}